:020000040800F2
:1000000088040020A55D02007B4B00007B4B0000B4
:100010007B4B00007B4B00007B4B0000000000008E
:10002000000000000000000000000000A94B0000DC
:10003000A94B000000000000A94B0000534B00003A
:10004000A94B0000A94B0000A94B0000A94B0000E0
:10005000A94B0000A94B0000D14B0000F94B000058
:10006000214C0000494C0000714C0000A94B0000DD
:10007000A94B0000A94B0000A94B0000A94B0000B0
:10008000A94B0000A94B0000974C0000A94B0000B1
:10009000A94B0000A94B0000A94B0000A94B000090
:1000A000A94B0000A94B0000A94B0000A94B000080
:1000B000BF4C0000E74C00000F4D0000A94B0000B2
:1000C000A94B0000A94B0000A94B0000A94B000060
:1000D000A94B0000A94B0000A94B0000A94B000050
:1000E000A94B0000A94B0000A94B0000A94B000040
:1000F000A94B0000A94B0000A94B0000A94B000030
:10010000A94B0000A94B0000A94B0000A94B00001F
:10011000A94B0000A94B0000A94B0000A94B00000F
:10012000A94B0000A94B0000A94B0000A94B0000FF
:10013000A94B0000A94B0000A94B0000A94B0000EF
:10014000A94B0000A94B0000A94B0000A94B0000DF
:10015000A94B0000A94B0000A94B0000A94B0000CF
:10016000A94B0000A94B0000A94B0000A94B0000BF
:10017000A94B0000A94B0000A94B0000A94B0000AF
:10018000A94B0000A94B0000C4050000FFFF222D71
:100190002D2D204D6563726973702D5374656C6CE1
:1001A0006172697320524120322E362E33202D2D5C
:1001B0002D0007B59048002B09D000F03DF800F065
:1001C00043F800F028F8426028210160F3E707BDFA
:1001D00000B5894800230168282905D1426800F04C
:1001E00004F800F04EF8F6E700BD03B547F8046DDB
:1001F000160047F8046D1E0008B400F09FFF08BC0D
:10020000013347F8046D7D4E47F8046D40F26126D6
:1002100004F0E6FA03BD03B5013B47F8046D1E0088
:1002200008B400F075FF08BC320047F8046D4FF4C5
:10023000005604F0D5FA03BD03B5714801681E29C4
:1002400001D000F034F803BD816901620169816168
:100250008168016101688160C16941624169C16170
:10026000C16841614168C1601E21016070470FB5DE
:10027000614801681E2903D0FFF7DEFFFFF7E4FFA6
:100280000FBD02B581680160C168416000E002B540
:10029000016981604169C16081690161C169416130
:1002A000016A8161416AC1611E21016202BD08B516
:1002B00001681E220260082901D20B0004E02829EF
:1002C00009D1436800F05BF847F8046D4D4E56EADB
:1002D000033603F039F908BD00B500F009F800F065
:1002E0000CF800F00FF800F012F800F015F800BD5F
:1002F0000FB54348FFF7DBFF0FBD0FB54248FFF7CF
:10030000D6FF0FBD0FB54148FFF7D1FF0FBD0FB5A9
:100310003F48FFF7CCFF0FBD0FB5374801680622F5
:1003200002601E2906D147F8046D4CF6407603F0B2
:10033000DBF815E0282909D1436847F8046D1E0051
:1003400047F8046D062602F063FD09E0062907D090
:1003500047F8046D44F20666C9000E4303F0C4F882
:1003600000F001F80FBD24481E2101628161016186
:100370008160C1620621016000218162704707B57A
:1003800047F8046D1E0000F045F847F8046D1E00A4
:1003900002F03EFD07BD07B5C16A282904D1016BF3
:1003A000994201D1002307BD0168002918D0816856
:1003B000002915D00169002912D0816900290FD0C8
:1003C000016A00290CD0036347F8046D1E0047F84A
:1003D000046D002602F01CFD2821C162002307BD28
:1003E00047F8046D1E0000F015F847F8046D1E0074
:1003F00002F00EFD07BD000020000020C40E00002A
:1004000040000020040D47F8380000203000002094
:100410002800002037B5364801688268036984697E
:10042000056A062000F00EF8032000F00BF8022009
:1004300000F008F8012000F005F800232C481E21E8
:10044000C16237BD814209D0824207D0834205D0C4
:10045000844203D0854201D0030037BD704747F87E
:10046000046D4CF6007600B581581E2905D1FFF7C2
:10047000D1FF8350012199400E4300BD00B50168B2
:100480001E2904D10022FFF7EAFF03F02DF800BD7A
:1004900000B581681E2907D10822FFF7E0FF00227E
:1004A000FFF7E1FF03F020F800BD00B501691E2948
:1004B0000AD11022FFF7D3FF0822FFF7D4FF002252
:1004C000FFF7D1FF03F010F800BD00B581691E29C8
:1004D0000DD11822FFF7C3FF1022FFF7C4FF082237
:1004E000FFF7C1FF0022FFF7BEFF02F0FDFF00BDD6
:1004F0002000002000B50168282904D14368FFF7D7
:100500003EFF0360190000BD00B58168282904D1B1
:10051000C368FFF734FF8360190000BD00B50169AF
:10052000282904D14369FFF72AFF0361190000BDA0
:100530003EB5826803698469056A9A4203D0A24283
:1005400001D0AA420AD1072A08D847F8046DD6007C
:10055000FFF760FF1E43836002F0C6FF3EBD3EB55D
:100560000168826803698469056A914206D09942EC
:1005700004D0A14202D0A94200D03EBD47F8046D8C
:10058000CE00FFF747FF1E43036002F0ADFF3EBD04
:1005900000B5FFF776FEFFF76AFEFFF73BFF03604B
:1005A00000BD01B506480368013308D00023DB43D2
:1005B000036047F8046D4BF2005602F095FF01BD51
:1005C000D87F0120E8050000420204326475700003
:1005D000386847F8046D043F3860704700B500F094
:1005E000C3FC00F0C1FC00BD06060000620205323B
:1005F00064726F70043740CF704700B500F064FC40
:1006000000F062FC00BD4C06000044020532737726
:10061000617007CF043F386047F8046D043F3A60CB
:100620000E00704700B5FFF750FF026803690360D2
:100630000261426843694360426182688369836002
:100640008261C268C369C360C26100BD74060000F4
:10065000620204326E69700007CF043F3860704751
:1006600000B5FFF732FFFFF7DDFFFFF70AFEFFF7E8
:1006700008FE00BD8E060000440005326F766572EC
:10068000B86847F8046D043F3860FE687047B206EA
:100690000000440005327475636B07CF043F386077
:1006A00047F8046D043F3A60043F3960043F386006
:1006B0007047D406000046000432726F7400386838
:1006C000B9683A69B86039613A6079687E60FE68F5
:1006D000F9607047F6060000460005322D726F740F
:1006E0003868B9683A6938613960BA60F968FE609B
:1006F0007E68796070471E070000200203323E7258
:1007000001CF01B440B440CF704700B5FFF749FFB7
:1007100000F0FDFB00F09DFC00F09BFC00BD4A07D3
:10072000000020020332723E47F8046D40BC01BC59
:10073000043F3860704700B5FFF733FF00F0A5FCB9
:1007400000F0A3FC00F0E3FB00BD7A0700002002EC
:100750000332724047F8046D019E47F8046D009E15
:10076000704700B5FFF71DFF47F8046D49F6010615
:1007700003F0F1FB03F0EBFB00BDA007000020023B
:1007800006327264726F700002B0704700B5FFF7F6
:1007900008FF47F8046D4BF2020602F0A5FE00BD0B
:1007A000B807000042000364322F3868F107761062
:1007B0004008084338607047CE07000062020364B7
:1007C000322A3868001876413860704717E0E80729
:1007D000000042000464736872003868F10776080C
:1007E000400808433860704734080000620204641F
:1007F00073686C003868001876413860704700B53F
:10080000FFF746FEFFF776FEFFF7A9FE00F07FFB3D
:10081000FFF770FEFFF7A3FE47F8046D402601F0D6
:100820002DFD00F074FB47F8046D44F2401601F012
:1008300025FD00BD460800004200046461627300AB
:10084000002E07D4704764080000420007646E65FC
:100850006761746538680021C043F64301304E413A
:1008600038607047B4080000640202642D0007CFAE
:10087000121AB1410E00043F3A60704700B5FFF70D
:1008800024FE00F099FBFFF735FEFFF768FE00F04D
:100890003EFBFFF72FFEFFF762FEFFF7C3FE01F0FE
:1008A00057FC00F0A5FB47F8046D44F2801600F0F9
:1008B0004EFD00BD02090000640202642B0007CF58
:1008C00012184E41043F3A60704700B5FFF7FDFD36
:1008D00000F072FBFFF70EFEFFF741FE00F017FB82
:1008E000FFF708FEFFF73BFEFFF79CFE01F015FC4B
:1008F00000F07EFB47F8046D44F2401600F02BFD3B
:1009000000BD2C090000610203733E6447F8046DCA
:10091000F617704700B500F0C5FAFFF720FE47F85C
:10092000046D41F2C07601F0A9FC00BD8A09000007
:10093000620203756D2A3868A0FB060638607047AE
:1009400047F8046DDFF8006500B5FFF7A1FDFFF77C
:10095000D1FDFFF7D9FD01680E43816856EA0146D3
:10096000FFF78FFCFFF78DFCFFF781FCFFF752FDCF
:10097000036056EA0336FFF77AFCFFF74BFD03608E
:1009800056EA032602F0E0FD00BDA809000062025D
:10099000026D2A00386880FB06063860704747F809
:1009A000046DDFF8A864CFE7E60900004400037592
:1009B000642A07CF564341437618010C130C594360
:1009C0007618010C80B292B2514343435043002247
:1009D000C91852411204B6180A04090C80184E4175
:1009E000043F38607047780A000044000475646D65
:1009F0002A0010B5002447F8046D7E6847F8046D9E
:100A00003E69FFF798FF310040CF300040CF47F8F4
:100A1000046D3E6847F8046DFE6803B4FFF78BFF72
:100A200003BC330040CF320040CF47F8046D3E682E
:100A300047F8046D3E690FB4FFF77DFF0FBC9219B4
:100A4000634140CF89196241634140CF47F8046D4B
:100A50007E6847F8046DFE680FB4FFF76CFF0FBCAB
:100A60009219634140CF89196241634140CF1E0012
:100A70003A607960B86010BD9A0A00004300022A0B
:100A80002F0000B540B440CFFFF784FF47F8046D56
:100A900040BC00F04CF8043700BDBC0A0000430025
:100AA000052A2F6D6F6400B540B440CFFFF772FF89
:100AB00047F8046D40BC00F03AF800BDDE0A0000C3
:100AC000430003752A2F00B540B440CFFFF733FF32
:100AD00047F8046D40BC00F01BF8043700BD020B62
:100AE0000000430006752A2F6D6F640000B540B406
:100AF00040CFFFF720FF47F8046D40BC00F008F836
:100B000000BD220B0000430006756D2F6D6F640061
:100B100000B547F8046D002600F019F840CF0437FF
:100B200000BD400B00004300056D2F6D6F6400B5E4
:100B300047F8046DF61700F032F840CF043700BDD7
:100B4000920B000044000675642F6D6F640030B492
:100B5000002300227968B86835003C6840264000D0
:100B6000494152415B41AB4202D804D3A24202D375
:100B7000121BAB410130013EF1D10E0038607B60A9
:100B8000BA6030BC704730B400237A68B96800207E
:100B9000E2E7080C0000440005642F6D6F6400B5A7
:100BA000F01719D0FFF756FEFFF733FDF0170CD002
:100BB000FFF750FEFFF72DFDFFF7C9FFFFF729FDF7
:100BC000FFF748FEFFF725FD00BDFFF722FDFFF709
:100BD000BEFFFFF73FFE00BDFFF71BFDF0170ED075
:100BE000FFF738FEFFF715FDFFF7B1FFFFF732FE05
:100BF000FFF70FFDFFF72EFEFFF70BFD00BDFFF720
:100C000008FDFFF7A4FF00BD1E0C000044000264B5
:100C10002F0000B5FFF7C3FFFFF71EFD00BD660CF8
:100C20000000440002662A0000B5F0170DD0FFF75F
:100C300011FEFFF7EEFCF0170DD0FFF70BFEFFF7EC
:100C4000D8FE40CF01CF386000BDFFF7E2FCF017BF
:100C5000F5D0FFF7FFFDFFF7CCFE40CF01CF3860A6
:100C6000FFF7F8FD00BDB20C0000440002662F0043
:100C700000B5F0170ED0FFF7EDFDFFF7CAFCF01737
:100C80000ED0FFF7E7FDFFF7C4FCFFF77CFFFFF78F
:100C9000E3FC00BDFFF7BDFCF017F4D0FFF7DAFD71
:100CA000FFF7B7FCFFF76FFFFFF7D4FDFFF7D4FCAA
:100CB00000BDFA0C000020020232210006CF316094
:100CC000726040CF704700B5FFF7EFFB01684268E4
:100CD00006B400F00CFEFFF7CAFA06BC0160282932
:100CE00006D047F8046D46F2400600F004FE00BD51
:100CF0000432426000F0FBFD00BD440D0000200204
:100D000002324000043F706838603668704700B5B2
:100D100000F0C8F8016828290AD047F8046D46F6A3
:100D2000400600F0C5FD00F0F2F800F0BDFD00BD8A
:100D300041680431416000F0B7FD00F0E8F800F0D0
:100D4000B3FD00BD580D000044000364753C07CF9F
:100D5000121AB141B64170476C0D000044000364A3
:100D6000753E07CF801A8E41B6417047820D000054
:100D7000440002643C0007CF121AB1410CDB00268C
:100D800070479E0D0000440002643E0007CF801AA9
:100D90008E4101DB002670470026F6437047BA0DEE
:100DA000000062020364303C0437F617704700B558
:100DB00000F0C0F800F058FB00BDE20D0000620238
:100DC0000364303D01CF0643013EB641704700B594
:100DD00047F8046D44F2003600F0BDFA00F01EFB47
:100DE00000BD080E0000440203643C3E07CF5040A3
:100DF0004E400643013EB641F643704700B500F051
:100E000015F800F01FFB00BD500E00004402026404
:100E10003D0007CF50404E400643013EB64170476B
:100E200000B500F003F800F0F9FA00BD00B5FFF7D7
:100E30004CFB00F0C1F800F0C3F900F0D9F800F065
:100E4000BFF900F0B0F900BD0000A0FB000080FB7E
:100E5000620E000020000373704047F8046D3E00EE
:100E60007047720E0000200003737021370040CFDE
:100E70007047840E000020000372704047F8046D34
:100E80006E467047940E0000200003727021B54634
:100E900040CF7047B80E000061020364757047F8D8
:100EA000046D704706B5FFF7E9FA01684268FFF77D
:100EB000DEF90160426006BDE40E000061020464D8
:100EC000726F700040CF704700B501681E2906D1CF
:100ED00047F8046D43F2047602F006FB00BDFFF70D
:100EE000D0F900BDFA0E00006100043F6475700087
:100EF000002E01D047F8046D7047260F00006202F3
:100F000004737761700039683E600E0070470CB55D
:100F1000FFF7BEFA02688368036082604268C368B4
:100F20004360C2600CBD540F00006202036E697022
:100F30000437704700B5FFF7A1FA81681E2902D077
:100F4000FFF7A5F900BD47F8046D43F2047602F0FF
:100F5000CBFA00BD7C0F00006202046F7665720060
:100F600047F8046D7E68704700B5FFF791FA816815
:100F7000C268FFF77CF90160426000BDA20F00006B
:100F80006202047475636B0001CF083F7E603860B5
:100F9000704700B5FFF77CFAFFF784FF00F028F8F0
:100FA00000BDD80F0000630203726F7403CF083FC7
:100FB00078603E600E0070470EB5FFF776FA016864
:100FC000826803698160026103604168C2684369A5
:100FD000C160426143600EBDFC0F00006302042D3E
:100FE000726F740003CF083F7E603960060070475F
:100FF00000B5FFF7E1FFFFF7DFFF00BD0E100000B7
:101000002000047069636B0057F826607047261053
:10101000000000000564657074684F49C91B47F8FB
:10102000046D8E1070474210000000000672646567
:101030007074680047F8046D6E464849891B8E102D
:101040007047781000002002023E720040B440CF8A
:10105000704700B5FFF7A5FAFFF710FAFFF74AFA55
:1010600047F8046D4BF2004601228A40164302F015
:101070003BFAFFF706F900BDAE1000002002027235
:101080003E0047F8046D40BC704700B5FFF789FA91
:10109000FFF7EDF8FFF7BEF9036047F8046D4BF674
:1010A000004601229A40164302F01EFA00BDCC1001
:1010B000000020020272400047F8046D009E704755
:1010C00000B5FFF76EFA02F042FF00BDF01000001D
:1010D0002002057264726F7001B0704700B5FFF7AF
:1010E00060FA47F8046D4BF2010602F0FDF900BD0D
:1010F00004110000200005727069636BB6006E4435
:101100003668704730110000000004726F6C6C008C
:10111000002E01D140CF7047B0003958C019031FCD
:101120001A6802600438013EF9D104370E00704796
:10113000601100000000052D726F6C6C002E01D153
:1011400040CF7047386839464A680A600431013E2A
:10115000FAD1086040CF704788030020880400203F
:101160007A110000620203616E6401CF064070478D
:1011700047F8046D44F20006EDE0961100006202AB
:101180000362696301CFB0430600704747F8046DFE
:1011900044F28036DBE0B01100006202026F7200A0
:1011A00001CF0643704747F8046D44F20036D2E0A1
:1011B000CA110000620203786F7201CF4640704787
:1011C00047F8046D44F24006C5E0E21100006202F7
:1011D000012A01CF4643704747F8046D44F2403678
:1011E000B9E016120000610203636C7AB6FA86F663
:1011F000704700B5FFF742F947F8046D7E4EFFF7E0
:1012000079F90E4356EA0146FFF7C2F956EA03267A
:1012100002F09AF900BD34120000611803726F7277
:101220000120C6417047020001000000002060124A
:101230000000620252120000611803726F6C1F20DE
:10124000C641704702001F0000000020601200002D
:1012500062027212000062020772726F746174653A
:1012600001CFF0410600704747F8046D44F2C01604
:101270006DE0AA1200006202076172736869667409
:1012800001CF30410600704700B547F8046D44F2C5
:10129000001647F8046D41F20006FFF7F9F84168BF
:1012A0001F292AD91F21416027E0D41200006202C1
:1012B000067273686966740001CFF04006007047DB
:1012C00000B547F8046D44F2C00647F8046D40F6D7
:1012D000000612E00C1400006202066C7368696676
:1012E000740001CFB0400600704700B547F8046DA8
:1012F00044F2800647F8046D0026FFF7C9F801683C
:10130000282903D040CF00F022F800BD04374168FF
:10131000FEF7B7FF002901D140CF00BD1F290AD831
:1013200089010E430268D2001643FFF731F91E43CC
:1013300002F0DAF800BD40CFFFF72AF947F8046D54
:1013400042F200061B021E4302F0CEF800BD0FB5AC
:10135000FFF79EF80CE00FB5FFF79AF80168062931
:1013600001D1FFF7D4FD8268282A01D1FFF7CFFD14
:10137000FFF7CAF8016828291ED147F8046D4668AE
:1013800001F092FC02CF002E40CF15D0B6F5804F71
:1013900001D11A4E1EE044F24002964201D1184E8D
:1013A00018E0B6F5864F01D1164E13E04FF4874290
:1013B000964201D1144E0DE0FFF7BAF8FFF79AF804
:1013C000C90082680E43164302F08EF8FEF759FFFB
:1013D0000FBD0FB50E43816856EA0146FEF751FF77
:1013E000FEF74FFFFEF743FFFFF714F8036056EADE
:1013F000032602F0A9F80FBD80F0B0FA000010F04B
:10140000000090F0000050F0000030F032140000B6
:10141000610202303D00013EB641704700B500F068
:10142000FBF800F0E8FEFEF72CFF4FF4524181621A
:1014300000BD5A140000610203303C3E013EB6413B
:10144000F643704700B500F0E7F800F0D4FEFEF771
:1014500018FF4FF45341816200BD82140000610205
:1014600002303C00F617704700B500F0D5F847F899
:10147000046D41F2C07600F001FF4FF455418162E6
:1014800000BD98140000600004747275650047F890
:10149000046D0026F6437047AC140000600005663A
:1014A000616C736547F8046D00267047D214000024
:1014B0004202023E3D0001CFB042EADA0026704708
:1014C00047F8046D4DF6003647F8046D4DF60026DA
:1014D000AEE0F81400004202023C3D0001CFB042F1
:1014E000D7DD0026704747F8046D4DF6004647F8F3
:1014F000046D4DF600569BE01C1500004202013CB5
:1015000001CFB042C5DB0026704747F8046D4DF6A9
:10151000002647F8046D4DF6003689E040150000BE
:101520004202013E01CFB042B3DC0026704747F8CB
:10153000046D4DF6005647F8046D4DF6004677E011
:1015400066150000620203753E3D01CF861BB64161
:10155000F643704747F8046D4DF2003647F8046DC6
:101560004DF2002664E08C150000620203753C3DDC
:1015700001CF361AB641F643704747F8046D4DF671
:10158000000647F8046D4DF6001651E0B015000056
:10159000620202753C0001CF861BB641704747F8D6
:1015A000046D4DF2002647F8046D4DF200363FE021
:1015B000D4150000620202753E0001CF361AB64112
:1015C000704747F8046D4DF6001647F8046D4DF668
:1015D00000062DE0F81500006202023C3E0001CF3B
:1015E000361A013EB641F643704747F8046D4DF296
:1015F000000647F8046D1BE05A1700006202013D27
:1016000001CF361A013EB641704747F8046D4DF2DE
:10161000001647F8046D0BE000B5FEF72FFFFEF74C
:1016200067FEFEF76AFEFEF76DFEFEF76DFF00BD7A
:1016300000B5FEF72DFFFEF75BFEFEF75EFEFEF740
:101640006DFF8268282A05D1FFF761FC39683E608A
:101650000E46826840CF016828291DD14168FF29C4
:1016600007D847F8046D42F600060E438168090268
:101670001AE047F8046D466801F016FB02CF002E11
:1016800040CF09D047F8046D6A4E0E43816856EA90
:10169000014601F059FF0AE0FEF72CFF47F8046D00
:1016A00044F28026C90016430E4301F01DFFFEF7E9
:1016B000E8FDFEF7E6FD866240CF00BD0FB55E484F
:1016C000816A002935D047F8046D866A002181625D
:1016D000310AD52901D140CF0FBDFEF7C8FDFEF775
:1016E00099FE0360D22904D14FF4834600F0C6FD71
:1016F0000FBDD32906D14FF4834600F0BFFD00F0A3
:10170000D0FD0FBD023601F0EFFE47F8046D42F246
:10171000000600F00FF800F0C4FD47F8046D4EF22B
:10172000000601F0E1FE47F8046D42F2000600F009
:1017300001F80FBD00B5FEF7A1FEFEF710FF01682E
:1017400009020E4301F0D0FE00BD00B5816A090A0E
:10175000D52901D1FEF795FD00BD78170000620282
:10176000036D696E01CFB04200DC0600704747F898
:10177000046D4DF600362DE0961700006202036DF1
:10178000617801CFB04200DB0600704747F8046D76
:101790004DF600461EE0B6170000620204756D614A
:1017A000780001CFB04200D30600704747F8046DBF
:1017B0004DF600060EE03C180000620204756D69EB
:1017C0006E0001CFB04200D80600704747F8046DA4
:1017D0004DF2003600B5FEF75BFE0168826891426B
:1017E00003D140CFFEF753FD00BD062A01D1FFF71C
:1017F0008EFB0168282901D1FFF789FBFEF7AFFEB8
:10180000FEF782FEC900026847F8046D44F28026A4
:101810000E43164301F068FE01F066FE47F8046DC2
:1018200044F200660E43164301F05EFEFEF72FFD04
:1018300000BD0000000FB0F1200000207A18000069
:101840000000046D6F76650007B5310040CF3200AF
:1018500040CF00290FD0B2420DD006D3013E013A4D
:10186000705C50540139FBD105E0307810700136BE
:1018700001320139F9D140CF07BD9C1800000000AA
:101880000466696C6C00300040CF310040CF002905
:1018900002D001397054FCD140CF7047DE180000EF
:1018A000200201403668704747F8046D46F600068E
:1018B00000B5FEF7E3FD0368282B08D143687C21BF
:1018C000194009010E437C218B43FEF764FDDB00C8
:1018D0001E43FEF75DFE1E4301F006FE00BD3619F5
:1018E00000002002012103CF30600E00704747F84E
:1018F000046D46F2000600B5FEF7CAFD0368282B0A
:1019000009D143687C21194009010E437C218B4396
:10191000FEF741FD0360DB001E438368282B02D1E4
:10192000C368FEF72CFD1E4301F0DEFDFEF7A9FCA7
:10193000FEF7A7FC00BD6C1900002002022B21005D
:1019400003CF3268121832600E00704700B5FEF700
:101950009FFDFFF7A7FAFFF7A7FFFFF72DFB00F0AA
:10196000DCFBFFF7D4FAFFF7C2FF00BDB01900009F
:101970002002026840003688704700B5FEF77EFD01
:1019800047F8046D48F600060368282B08D1436821
:101990003E21194049010E433E218B43FEF7FBFCDB
:1019A000DB001E43FEF7F4FD1E4301F09DFD00BD6C
:1019B0000A1A000020020268210003CF30800E00C6
:1019C000704700B5FEF764FD47F8046D48F2000665
:1019D0000368282B09D143683E21194049010E4371
:1019E0003E218B43FEF7D7FC0360DB001E43836878
:1019F000282B02D1C368FEF7C2FC1E4301F074FD20
:101A0000FEF73FFCFEF73DFC00BD401A000020023F
:101A100003682B2103CF3288121832800E007047E2
:101A200000B5FEF735FDFFF73DFAFFF7A6FFFFF71C
:101A3000C3FA00F072FBFFF76AFAFFF7C2FF00BDBE
:101A4000841A00002002026340003678704700B517
:101A5000FEF714FD47F8046D47F600060368282BCF
:101A600008D143681F21194089010E431F218B4370
:101A7000FEF791FCDB001E43FEF78AFD1E4301F0DA
:101A800033FD00BDDE1A000020020263210003CFF7
:101A900030700E00704700B5FEF7FAFC47F8046D91
:101AA00047F200060368282B09D143681F2119401B
:101AB00089010E431F218B43FEF76DFC0360DB00A1
:101AC0001E438368282B02D1C368FEF758FC1E43CF
:101AD00001F00AFDFEF7D5FBFEF7D3FB00BD141B9A
:101AE0000000200203632B2103CF327812183270DA
:101AF0000E00704700B5FEF7CBFCFFF7D3F9FFF7F8
:101B0000A6FFFFF759FA00F008FBFFF700FAFFF70E
:101B1000C2FF00BD381B000020020462697321006F
:101B200003CF3268024332600E00704700B547F8B9
:101B3000046D44F2003630E0781B0000200204629D
:101B40006963210003CF3268824332600E00704720
:101B500000B5FEF79DFCFFF7A5F9FFF7A5FEFFF71F
:101B60002BFA47F8046D44F28036FFF7F0FBFFF7DD
:101B7000CEF9FFF7BCFE00BDB81B000020020478C0
:101B80006F72210003CF3268424032600E0070470E
:101B900000B547F8046D44F24006FEF779FCFFF704
:101BA00081F9FFF781FEFFF707FAFFF7D4FBFFF794
:101BB000AEF9FFF79CFE00BDEE1B000020020462A0
:101BC0006974400001CF3668064018BF4FF0FF36F9
:101BD000704700B5FEF75CFCFFF766FE47F8046D42
:101BE00044F20006FFF7B7FBFFF72CFC00BD121C08
:101BF0000000200205686269732103CF3288024326
:101C000032800E00704700B547F8046D44F200368C
:101C100030E0521C0000200205686269632103CF96
:101C20003288824332800E00704700B5FEF730FCE8
:101C3000FFF738F9FFF7A1FEFFF7BEF947F8046D8B
:101C400044F28036FFF783FBFFF761F9FFF7B9FE37
:101C500000BD921C000020020568786F722103CF3E
:101C60003288424032800E00704700B547F8046D5C
:101C700044F24006FEF70CFCFFF714F9FFF77DFE77
:101C8000FFF79AF9FFF767FBFFF741F9FFF799FEB6
:101C900000BDB81C0000200205686269744001CFD5
:101CA0003688064018BF4FF0FF36704700B5FEF784
:101CB000EFFBFFF762FE91E7DC1C000020020563EA
:101CC0006269732103CF3278024332700E0070478D
:101CD00000B547F8046D44F2003630E01C1D0000EA
:101CE000200205636269632103CF32788243327038
:101CF0000E00704700B5FEF7CBFBFFF7D3F8FFF7F8
:101D0000A6FEFFF759F947F8046D44F28036FFF755
:101D10001EFBFFF7FCF8FFF7BEFE00BD5C1D0000D8
:101D200020020563786F722103CF3278424032700F
:101D30000E00704700B547F8046D44F24006FEF708
:101D4000A7FBFFF7AFF8FFF782FEFFF735F9FFF7C4
:101D500002FBFFF7DCF8FFF79EFE00BDAA1D0000A6
:101D6000200205636269744001CF3678064018BFCF
:101D70004FF0FF36704700B5FEF78AFBFFF767FEAE
:101D80002CE700F02DFE1E466C6173682063616EC7
:101D90006E6F74206265207772697474656E20744A
:101DA000776963650A0002F031BE701E0000000012
:101DB000083136666C61736821003FB50F203040F2
:101DC00015D000F00DFE223136666C61736821205B
:101DD0006E656564732031362D616C69676E65646C
:101DE00020616464726573730A0002F00FBE30688C
:101DF0000130C6D170680130C3D1B0680130C0D1A4
:101E0000F0680130BDD14FF00062B618104A114B96
:101E10001360114B1360114A0123136008CF04CFE4
:101E200002CF01CF01C602C600F01AF804C608C6E8
:101E300000F016F8094A1088012188431080074AEB
:101E400010684FF000410843106040CF3FBD0000D4
:101E50000820024023016745AB89EFCD14200240E2
:101E600003B42149088801210840FAD103BC704716
:101E7000081F000000000E666C6173687061676582
:101E80006572617365000FB5300040CF4FF41833B1
:101E9000984228D3154A164B1360164B1360164A06
:101EA000022313600821C84040F6F8721040022156
:101EB0000843114A10800120104A10800A4A1388F2
:101EC00001201840FBD10E4A802313700D4A11687F
:101ED00002B44FF4C060814311604FF4C05001431D
:101EE000116002BC11600FBD1220024008200240A8
:101EF00023016745AB89EFCD142002401620024034
:101F000017200240002002408A1F000000000A65DE
:101F100072617365666C617368004FF4183072B655
:101F20004FF480114FF6FF72038893421CD047F89C
:101F3000046D060047F8046D00F052FD1045726113
:101F4000736520626C6F636B20617420200000F069
:101F5000AFFD00F045FD0C2066726F6D20466C6190
:101F600073680A00FFF78FFF02308842DCD100F06F
:101F700037FD1246696E69736865642E2052657379
:101F8000657420210A0002F0D2FDA61F00000000A7
:101F90000E6572617365666C61736866726F6D0061
:101FA000300040CFBBE7C81F0000000009696E6920
:101FB00074666C61736854484FF42071002202709B
:101FC00001300139FBD17047B020000000000768E4
:101FD000666C6173682130B5320040CF500813D36E
:101FE00000F0FEFC1E68666C61736821206E6565FA
:101FF0006473206576656E206164647265737365D1
:10200000732E0A0002F002BD4FF418339A4210D228
:1020100000F0E6FC1943616E6E6F7420777269748C
:102020006520696E746F20636F726520210A02F06B
:10203000EDBC130934482021046824099C4226D0B1
:1020400014300139F8D1304820210468002C17D011
:1020500014300139F9D100F0C3FC21546F6F206DA9
:10206000616E792073636174746572656420466C77
:10207000617368207772697465732E0A02F0C6BCBA
:102080001B010360013941608160C16001610F2162
:1020900011400431465240CF0168013101600F22E6
:1020A0001140082903D100F01AF8FFF786FE30BD71
:1020B0000C21000000000A666C757368666C617321
:1020C000680000B5104820210268002A03D000F003
:1020D00006F8FFF772FE14300139F5D100BD47F85C
:1020E000046D466847F8046D866847F8046DC66855
:1020F00047F8046D066947F8046D0F26F643026839
:10210000164000220260704788040020422100002F
:102110006202012B01CF3618704700B5FEF7B8F9FF
:1021200047F8046D43F2000647F8046DC94E47F8BE
:10213000046D41F600068168282917D1FEF7E7FEF5
:1021400014E0E82100006202012D01CF861B7047D8
:1021500000B5FEF79DF947F8046D43F6000647F811
:10216000046DBD4E47F8046D41F60026FEF7CCF92C
:102170000168282927D14168FF290CD840CF40CFDA
:10218000FEF7D6F90E43816809020E4301F0ACF95F
:10219000FEF777F800BD47F8046D0E0000F084FDEF
:1021A00002CF002E40CF0ED040CF04370E438168BF
:1021B00056EA0146FEF765F8FEF7EAF956EA032605
:1021C00001F0C2F900BD04370437FEF793F9890125
:1021D0008268D2000E431643FEF753F8FEF7D8F993
:1021E0001E4301F081F900BD0022000061020231AE
:1021F0002D00013E704747F8046D41F640663DE012
:1022000018220000610202312B000136704747F8A6
:10221000046D41F6404631E0302200006102023296
:102220002D00023E704747F8046D41F6806625E0B8
:1022300048220000610202322B000236704747F844
:10224000046D41F6804619E06222000061020563D8
:10225000656C6C2B0436704747F8046D41F60056E8
:102260000CE0942200006102066E656761746500EF
:102270007642704747F8046D44F2402600B5FEF7F9
:10228000FDF80168C9000E43FEF782F91E4301F014
:102290002BF900BDAC2200006102036E6F74F6439F
:1022A000704747F8046D44F2C036E7E7C4220000E7
:1022B0006102037368727608704747F8046D40F650
:1022C0004006DBE7D422000061020373686C7600ED
:1022D000704706E0EA220000610202322A0076001E
:1022E000704747F8046D4026C8E7022300006102EA
:1022F0000563656C6C73B600704747F8046D802603
:10230000BCE71A230000610202322F0076107047EA
:1023100047F8046D41F24006B0E75A23000061021D
:1023200003616273F01736184640704700B5FEF738
:10233000A5F847F8046D00260168C9000E43FEF7B2
:1023400027F91E4301F0D0F847F8046D4DF200560E
:1023500001F0CAF8FFF78EFF00BD782300004200AD
:1023600005752F6D6F6401CF3100B0FBF6F6714338
:10237000401A043F38607047962300004200042F43
:102380006D6F640001CF310090FBF6F67143401A87
:10239000043F38607047AA2300004200036D6F6459
:1023A00000B5FFF7EFFF40CF00BDEA230000620257
:1023B000012F01CF90FBF6F6704700B5FEF768F8E5
:1023C000FEF798F8FEF7A0F847F8046D234E016871
:1023D0000E43816856EA0146FDF753FFFEF7D8F831
:1023E00056EA032601F0B0F800BDFE2300006100AC
:1023F000046576656E00012030403618704716245B
:102400000000810004626173650047F8046D144E9A
:1024100070470A0000002C24000000000662696E6C
:10242000617279000E480221016070474224000069
:10243000000007646563696D616C09480A210160E9
:102440007047C62400000000036865780448102126
:1024500001607047000010F10000B0F1F0F090FB57
:10246000FC7F0120A9494FF0FF000860A8494FF404
:1024700080400860A7494FF4002008604FF0904169
:10248000A5480860A5494FF088000860A4494FF4AA
:10249000EE600860A34923200860A3490860A349AF
:1024A0004FF480500860A2490860A2494FF00D0027
:1024B0000860A149086070479A4840F2A111016084
:1024C000994801607047E2240000810009686F6F3D
:1024D0006B2D656D697447F8046D984E7047CC2577
:1024E0000000FE240000810008686F6F6B2D6B6593
:1024F000790047F8046D924E7047F22500001C25C4
:10250000000081000A686F6F6B2D656D69743F0074
:1025100047F8046D8B4E70471C26000038250000DC
:10252000810009686F6F6B2D6B65793F47F8046D0B
:10253000854E7047482600005625000081000A6835
:102540006F6F6B2D70617573650047F8046D7F4E7A
:102550007047DE4A00006C250000000004656D69CC
:1025600074000FB5754800F026F80FBD80250000F7
:102570000000036B65790FB5714800F01CF80FBDC2
:1025800092250000000005656D69743F6D48006884
:102590008746A42500000000046B65793F006A4867
:1025A00000688746BA2500000000057061757365F4
:1025B00066480068874600688746E02500000000FE
:1025C0000B73657269616C2D656D697400B500F0FF
:1025D00025F8002E40CFFAD05D4A167040CF00BDDE
:1025E0000826000000000A73657269616C2D6B6536
:1025F000790000B500F028F8002E40CFFAD047F857
:10260000046D544A167800BD3626000000000C7395
:10261000657269616C2D656D69743F0000B5FFF7E7
:10262000C7FF47F8046D00264B4801688020014031
:1026300000D0F64300BD6226000000000B736572F7
:1026400069616C2D6B65793F00B5FFF7B1FF47F805
:10265000046D0026404801682020014000D0F64368
:1026600000BD8826000000000B6272696467652D5A
:10267000656D697400B500F025F8002E40CFFAD0E2
:10268000364A167040CF00BDB026000000000A6236
:1026900072696467652D6B65790000B500F028F8F4
:1026A000002E40CFFAD047F8046D2D4A167800BDB1
:1026B000DE26000000000C6272696467652D656D9E
:1026C00069743F0000B5FFF773FF47F8046D0026FB
:1026D000244801688020014000D0F64300BD6827EF
:1026E000000000000B6272696467652D6B65793FBD
:1026F00000B5FFF75DFF47F8046D00261948016833
:102700002020014000D0F64300BD00004C100240E4
:102710006010024058100240FAFFEB6B20000048A6
:10272000240000480C3801400C4C0040083801409F
:10273000084C004000380140004C0040F87F012068
:10274000F47F0120F07F0120EC7F0120E87F012051
:1027500028380140243801401C380140284C0040F2
:10276000244C00401C4C00408C27000000000763F4
:1027700065787065637400B5386801B401303860FD
:1027800000F00BF801BC067040CF00BD022800002D
:102790000000066163636570740000B502CF013903
:1027A0000022FFF7E8FE300040CF7F2809D0202824
:1027B00019D2092816D00A281FD00D281DD00828A4
:1027C000EFD1002AEDD000F00BF903082008002A11
:1027D000E7D0885C013A80230340E2D040230340E5
:1027E000F5D0DEE72020B242DBD247F8046D0600C8
:1027F000FFF7B7FE01328854D3E7160000F09FF8C8
:1028000000BD1428000040000374696247F8046D9D
:10281000294E70472A2800008100033E696E47F860
:10282000046D264E70470000000050280000820012
:102830000E63757272656E742D736F7572636500C9
:1028400047F8046D1E4E704700000000C0000020D5
:102850006C280000000009736574736F75726365FE
:10286000174802CF0660416040CF70478A280000B9
:10287000000006736F757263650047F8046D104EB3
:10288000043F7068386036687047C4280000000054
:102890000571756572790FB5084800210160FFF771
:1028A000B5FF47F8046D47F8046DC826FFF775FFBC
:1028B000FFF7D6FF0FBD0000C0000020E47F01201D
:1028C000DC7F01200C290000000007636F6D706140
:1028D00072650FB5310040CF01CF884202CF10D1D1
:1028E000002810D001380A5C335C412A02D35B2AED
:1028F00038BF2032412B02D35B2B38BF20339A42A2
:10290000EED000260FBD0026F6430FBD20290000A3
:1029100000000263720000B500F062F8010A00BD19
:1029200032290000000002626C0047F8046D202686
:10293000704746290000000005737061636547F821
:10294000046D20260DE66629000000000673706104
:102950006365730000B5002E03DDFFF7F0FF013E55
:10296000FBD140CF00BD762900005000065B6368B4
:1029700061725D0005E08E2900000000046368615B
:10298000720000B501F0C4FC40CF367800BD9E292E
:1029900000005004012847F8046D292606E0B829F4
:1029A00000005004015C47F8046D002600B501F0FA
:1029B000B9FC043740CF00BDFC2900003000022ED6
:1029C0002200AA4800B547F8046D060000F07DFA21
:1029D00047F8046D222601F0A5FC00F0C0FD00BD03
:1029E0000AB447F8046D7646013E3378012101337D
:1029F00019405B181EEB030E0ABC39E0222A0000C6
:102A00003000026322009A48DCE747F8046D7646FE
:102A1000013E33780121013319405B181EEB030E90
:102A200070474C2A00003000027322009148C9E729
:102A300047F8046D764647F8046D013E367801216B
:102A4000731C19405B181EEB030E7047642A0000CC
:102A5000000005636F756E74013647F8046D013E22
:102A6000367870477C2A0000000005637479706531
:102A700000B5FFF7F1FF00F007F800BDA42A000041
:102A8000000004747970650001B501CF002E07D0F5
:102A900047F8046D0678FFF764FD0130013EF7D179
:102AA00040CF01BDDE2A00000000046865782E00DA
:102AB00007B5310040CF20200F22043847F8046DBD
:102AC0000E00C6401640092E01D9373600E03036D8
:102AD000FFF747FD0028F0D1FFF731FF07BDEE2AD1
:102AE0000000000003682E731FB5634C0EE0FE2A41
:102AF0000000000003752E731FB5604C06E0A22B8A
:102B000000000000022E73001FB55D4C5D49C91B1B
:102B10008908220A2020292F200A2028273E200A5F
:102B2000202F43432020203335204343430A385C81
:102B300029295F200A0A544A106803B40A20106049
:102B4000FFF74EFF08537461636B3A205B0047F850
:102B5000046D0E0001F0B3FDFFF742FF025D20009F
:102B600003BC2736484A106000290AD0474A10683B
:102B700006B447F8046D0600A04706BC043A0139C4
:102B8000F5D1FFF72DFF0620544F533A200047F8A8
:102B9000046D3600A047FFF723FF04202A3E0A00F9
:102BA0001FBD422C0000000005776F72647300B5F2
:102BB000FFF716FF010A00F02CFFFFF711FF094194
:102BC0006464726573733A2047F8046DFFF770FF11
:102BD000FFF706FF064C696E6B3A200047F8046D5C
:102BE0003668FFF765FFFFF7FBFE07466C6167730A
:102BF0003A2047F8046DB688FFF75AFFFFF7F0FE5A
:102C000006436F64653A2000B01D00F04FFF47F89F
:102C1000046D0600FFF74CFFFFF7E2FE064E616D04
:102C2000653A200047F8046D0636FFF721FFFFF7ED
:102C3000D7FE010A00F005FF300040CFBDD040CFE5
:102C400000BD942C0000000006756E75736564006D
:102C500000B501F000F80E4801684FF000529142B3
:102C600001D24FF48016761A00BD0000E029000062
:102C70000A2A0000302A0000B12A0000AF460000F6
:102C8000BF46000088030020FC7F01208403002051
:102C9000D07F0120F82D000000000D3132626974F0
:102CA000656E636F64696E670FB5FF2E04D847F8D1
:102CB000046D5FF0FF360FBD16F0FF10B0420ED16D
:102CC0004FF6FF710840310C814208D116F0FF0623
:102CD00056F4805647F8046D5FF0FF360FBD16F0CE
:102CE000FF20B0420FD14FF6FF710840310C8142F6
:102CF00009D1360A16F0FF0656F4005647F8046D5F
:102D00005FF0FF360FBDFF2231001140300A104046
:102D1000884210D1300C104088420CD1300E104047
:102D2000884208D116F0FF0656F4405647F8046D65
:102D30005FF0FF360FBD300000210131001850F167
:102D400000007FF07F020240802A05D01F29F4D3C3
:102D500047F8046D00260FBD0829F9D3060036F0A8
:102D6000800611F00100C001064311F00E00C00200
:102D7000064311F010008005064347F8046D5FF02C
:102D8000FF360FBD47F8046DDFF8E8655FF470416A
:102D900010EA0102120116435FF4006110EA010219
:102DA000D20316435FF4E06110EA010212011643F8
:102DB000FF2110EA010216431E43C5E347F8046DE4
:102DC000DFF8B4655FF0704110EA0102120B1643A0
:102DD0005FF0006110EA0102520816435FF0E06103
:102DE00010EA0102120B16435FF47F0110EA0102A0
:102DF000120C16431E43A7E35E2E00000000107263
:102E0000656769737465726C69746572616C2C00B6
:102E10000FB5330040CF1B02FF2E05D856F40056E5
:102E20001E4300F061FB0FBDFFF73EFF002E40CFB9
:102E300006D0DFF8480506431E4300F085FB0FBDB2
:102E4000F643FFF731FF002E40CF06D0DFF8300504
:102E500006431E4300F078FB0FBDF6430BE0BE2E89
:102E600000000000096D6F76776D6F76742C0FB5DA
:102E7000330040CF1B02300040CFFFF783FF4FF6F7
:102E8000FF7110EA014001D0FFF798FF0FBD0FB5A9
:102E90000136300040CF0023FFF774FFFFF78EFFAD
:102EA00006E00FB5013647F8046D0026FFF7B0FFC6
:102EB00047F8046D44F2807600F016FB0FBD242F16
:102EC000000000000563616C6C2C0FB5330000F04E
:102ED000B3FE300040CF1B1A043BDFF8A8141940A2
:102EE000002906D0DFF8A024914202D0BDE80F40AF
:102EF000D7E740CF5B08DFF8940440F2FF71194038
:102F00000843DB0A40F2FF311940090408439B0AD9
:102F100013F001018906084347F8046D060000F02C
:102F200013FB0FBD5A2F00000000086C6974657216
:102F3000616C2C0008B547F8046D4FF6470600F0A9
:102F4000D3FA47F8046D46F6045600F0CDFA47F878
:102F5000046D0626FFF75CFF08BD7E2F0000000011
:102F6000066372656174650000B500F03BF842F6D7
:102F70009B70804747F8046DBEF1010600BDD62F57
:102F80000000200005646F65733E42F69B70804729
:102F900047F8046DBEF10106704747F8046DBEF1B5
:102FA0000106FB4A1368FB4909684FF00050834251
:102FB00005D20F200840042805D00231F9E702208D
:102FC000084000D0023102311160FFF760FF13604A
:102FD00000F0F5F900BD323000000000073C6275DA
:102FE000696C647300B500F0E1FBE94801684FF0DB
:102FF0000052914209D200F01FFE0F200640042E1D
:1030000040CF0AD000F062FAF5E700F015FE02208A
:10301000064040CF01D000F059FA47F8046D4BF25A
:10302000005600F061FA47F8046D0A2600F0CAFA6B
:1030300000BD3E3000005000035B275D03E05630CA
:1030400000000000012700B501F062F900F091FDD9
:10305000300040CF00BD8C300000300008706F732E
:1030600074706F6E650000B5FFF7EDFF47F8046DF3
:10307000060039683E600E46FFF75CFFFFF75AFF17
:1030800047F8046DC44EFFF720FF00BDE23000009A
:10309000000007696E6C696E652C00B54BF200513B
:1030A0004BF6005244F270733088884208D0904248
:1030B00008D0984206D047F8046D060000F014FAD4
:1030C0000236F1E740CF00BD0EB44BF6005244F299
:1030D000707301880230914201D09942F9D10EBC3F
:1030E0007047F83000000000047265742C0047F847
:1030F000046D4BF60056F7E1063100003000046520
:1031000078697400F3E71E310000300007726563D0
:103110007572736547F8046D9E4E3668D5E6363194
:103120000000810005737461746547F8046D9B4E5F
:10313000704700000000483100000000015D974822
:103140000021C94301607047583100001000015B45
:103150009248002101607047783100000000013A78
:1031600000B58F48076000F021FB8C480121016009
:103170008C480021016000BDF43100003008013BA3
:1031800000B587480168B94214D087498E4202D100
:10319000864EFFF76DFCFFF723FC15205374616327
:1031A0006B206E6F742062616C616E6365642E0AC1
:1031B00001F02CBC79480068411C10D00B2805D8C0
:1031C00047F8046D40F6200600F030F947F8046D2A
:1031D00044F2707600F088F901F018FB05E047F83A
:1031E000046D4BF6005600F07FF900F0E8F8FFF7A9
:1031F000AFFF00BD08320000000007657865637509
:103200007465300040CF8746203200001000096905
:103210006D6D65646961746547F8046D102605E19C
:1032200036320000500006696E6C696E650047F822
:10323000046D2026FAE05032000010000B636F6D21
:1032400070696C656F6E6C7947F8046D3026EDE03F
:103250006A32000050000A302D666F6C6461626C47
:10326000650047F8046D4026E0E08432000050001D
:103270000A312D666F6C6461626C650047F8046DFD
:103280004126D3E09E32000050000A322D666F6C5A
:103290006461626C650047F8046D4226C6E0B8328E
:1032A000000050000A332D666F6C6461626C65002B
:1032B00047F8046D4326B9E0D232000050000A34CA
:1032C0002D666F6C6461626C650047F8046D44267E
:1032D000ACE0EC32000050000A352D666F6C646182
:1032E000626C650047F8046D45269FE006330000D8
:1032F00050000A362D666F6C6461626C650047F899
:10330000046D462692E02033000050000A372D66F7
:103310006F6C6461626C650047F8046D472685E058
:1033200050330000000008636F6E7374616E7400A8
:1033300000B500F03BFAFFF7FDFD47F8046D44F2DD
:10334000707600F0D1F8FFF78CFF00F038F800BD80
:10335000B033000000000932636F6E7374616E74E5
:1033600000B500F023FA39683E600E46FFF7E2FD33
:10337000E1E70000000040F20000C0F200005FF052
:1033800000007FF00100C0FF0000C0FF00F800F067
:10339000D07F01200C00002006470000D87F0120CC
:1033A000080000205400002085191204122B000090
:1033B0001C340000000006736D756467650000B57D
:1033C000EA4801684FF00052914220D202390A883F
:1033D0004FF6FF739A4205D147F8046D4FF000068F
:1033E00000F082F800F04FF800F062F8E048006862
:1033F00047F8046D0600DF4909680431DB4A1368A9
:10340000116000F071F81360FEF75BFE00BD00F084
:103410003AF847F8046D4FF0000608E06434000005
:10342000000008736574666C6167730000B5CF486F
:1034300001684FF00052914205D2CD4801683143F6
:10344000016040CF00BD320040CFCA480068043060
:1034500001884FF6FF73994201D1110000E011433A
:10346000018000BD7A340000410007616C69676E1D
:1034700065640336032086437047A03400000000D3
:1034800005616C69676E00B5B848016802200140AB
:1034900005D047F8046D4FF0000600F025F800BD98
:1034A000DE340000000008616C69676E31362C0064
:1034B00000B5AE4801680F20014006D047F8046D02
:1034C0004FF0000600F010F8F3E700BD47F8046D78
:1034D000362609E047F8046D4CF6407604E02435C2
:1034E0000000000002682C000FB5B6B2A2480168C7
:1034F000002902D0013100D001609C4801684FF0E2
:103500000052914205D247F8046D0E00FEF763FDAC
:1035100002E0320040CF0A8047F8046D022600F036
:1035200051F80FBD3E3500000000012C01B547F8F1
:10353000046DFFF7D9FF360CFFF7D6FF01BD5035FC
:1035400000000000033E3C2C01B51020C641EEE710
:10355000B8350000000007737472696E672C07B5F8
:10356000FF21314040CF300040CF002905D147F83E
:10357000046D0026FFF7B8FF07BD47F8046D067815
:1035800036020E43FFF7B0FF0130013902290AD39A
:1035900047F8046D4678360202781643FFF7A4FF19
:1035A00002300239F2E7002900D107BD47F8046D67
:1035B0000678FFF799FF07BD163600000000056189
:1035C0006C6C6F74694801684FF00052914210D2E0
:1035D000320040CF89184FF48012914219D3FFF77F
:1035E000FFF90B466C6173682066756C6C0A01F01C
:1035F0000DBA320040CF8918604A1268914208D350
:10360000FFF7EEF90952616D2066756C6C0A01F0E6
:10361000FDB90160704732360000810008286C61F6
:1036200074657374290047F8046D554E704788011E
:1036300000004A360000810004286470290047F821
:10364000046D504E70472C0700206E3600000000BD
:1036500009666F7267657472616D00B500F025F8D8
:1036600048484949016046484849016000BD9636CE
:10367000000000000D636F6D70696C65746F72619E
:103680006D3F47F8046D3F4800684FF00051884295
:10369000B641F6437047B836000000000C636F6D0A
:1036A00070696C65746F72616D00364800684FF028
:1036B0000051884212D370472A37000000000E6381
:1036C0006F6D70696C65746F666C617368002D480E
:1036D00000684FF00051884200D2704728482C49BA
:1036E00002680B680A60036026482A4902680B6872
:1036F0000A60036021480068834215D300B5FFF7D4
:103700006FF923205661726961626C657320636F83
:103710006C6C696465207769746820646963746996
:103720006F6E6172790A00BD704746370000000075
:103730000C61646472696E666C6173683F00134863
:103740004FF480110BE09C37000000000A616464B4
:1037500072696E72616D3F004FF000500E498642F3
:1037600002D38E42B641704700267047D07F0120B9
:1037700018000020D47F0120D87F01201C000020E9
:10378000D47F0120D07F01202C0700208801000079
:10379000140000201000002000800120A03800004C
:1037A00000000828637265617465290000B500F0A7
:1037B000AFFD002E0ED1FFF713F91520437265619E
:1037C0007465206E65656473206E616D6520210AE5
:1037D00001F01CB9386847F8046D043F386000F008
:1037E00074F940CF002E40CF11D0386847F8046DEF
:1037F000043F3860FFF7F4F8095265646566696E46
:103800006520FFF741F9FFF7EBF8022E2000FFF7E4
:103810003AFE954800684FF00051884227D29348FD
:103820004FF000010160FFF743FE47F8046D0C26DE
:10383000FFF7C8FE00F000FA47F8046D0626FFF710
:10384000C1FEFDF7CFFBFFF78AFE894801680A68D1
:103850004FF0FF339A4207D1834A1368116047F84B
:10386000046DFFF763FE1360066040CF13E000F0C5
:10387000E3F97F4847F8046D0668FFF757FE47F8FD
:10388000046D4FF6FF76FFF72FFE7948310040CFE9
:103890000160FFF764FE744801687648016000BD6E
:1038A000B83800000000087661726961626C6500DA
:1038B00047F8046D012613E0D038000000000932FB
:1038C0007661726961626C6547F8046D022607E0F3
:1038D000423900000000096E7661726961626C65B0
:1038E00000B5FFF763FF604801684FF00052914256
:1038F00018D20F200640B20000F04CF8300040CF44
:103900000200002805D00E600431FFF70FFE0138D9
:10391000F9D147F8046D80261643FFF787FDFFF7BE
:103920004EFD00BD00F050F8300040CF002803D01D
:10393000FFF7FCFD0138FBD1FFF793FCFFF73FFDDC
:1039400000BDFC3900000000076275666665723ACA
:1039500000B5FFF72BFF0120304036180220304021
:103960003618414801684FF0005291420DD23200A2
:1039700000F010F8FFF7DAFD47F8046D40F240164A
:10398000FFF754FDFFF71BFD00BD00F01DF8FFF72A
:1039900019FED1E700B538480168891A374A9142C3
:1039A0000BD2FFF71DF80F4E6F7420656E6F7567B1
:1039B000682052414D0A01F029B8016047F8046DB2
:1039C0000E00FFF7B7FA12E000B500F035F902205B
:1039D000064040CF01D1FFF779FD47F8046D284E2E
:1039E000FFF7B2FD47F8046D264EFFF7ADFD47F82F
:1039F000046D44F27076FFF777FD00BD2C3A0000AD
:103A000000000F64696374696F6E61727973746129
:103A10007274154800684FF0005147F8046D8842F1
:103A200001D2194E7047124E366870478C3A00002A
:103A300000000E64696374696F6E6172796E6578F7
:103A4000740003B531684FF0FF30814207D08879A8
:103A5000FF2804D00E0047F8046D002603BD47F888
:103A6000046D0026F64303BDD07F0120180000201E
:103A7000D47F01200C0000201C0000202C07002017
:103A80003E60043F02367E4688010000BE3A0000D8
:103A900000000A736B6970737472696E6700317825
:103AA000013101220A4089187618704706B401785E
:103AB000013101220A408918401806BC7047D03AEB
:103AC000000000000466696E6400304800688746A4
:103AD000EC3A0000810009686F6F6B2D66696E64B7
:103AE00047F8046D2A4E7047FA3A0000943B0000F4
:103AF0000000062866696E64290030B500200021A8
:103B000003B4350040CF340040CFFFF782FF4FF6BB
:103B1000FF70B18888421ED0B179A9421BD1F01D37
:103B20000139425C635C412A02D35B2A38BF2032F0
:103B3000412B02D35B2B38BF20339A420BD1002993
:103B4000EED102B0B01DFFF7B1FFB18803B44FF062
:103B50000050864207D236684FF0FF30864202D0CE
:103B6000B079FF28D3D103BC060047F8046D0E00DE
:103B700030BD00B53100386803B4FFF7A6FF03BCC1
:103B80003A68002A01D100F0EFFE00BDCC7F012091
:103B9000CC7F0120F23B0000000006636A756D7067
:103BA0002C00320040CF310040CF8B1B043B6FF024
:103BB000FE01194000290ED06FF0FF0081420AD0AB
:103BC000FEF70EFF0D4A756D7020746F6F206661F1
:103BD000720A00F01BBF5B10FF210B401343300043
:103BE0001E0000B5CB4A13681060FFF77DFC136020
:103BF00000BD2C3C00000000056A756D702C310082
:103C000040CF300040CF0B1A043BC3491940002974
:103C100002D0C24A9142D3D15B1040F2FF721340EE
:103C200053F4604347F8046D1E00DAE7423C00009D
:103C3000000004686572650047F8046DB54E36688B
:103C40007047703D000000000D666C61736876611E
:103C5000722D6865726547F8046DB14E366870471D
:103C600000B547F8046D42F60066FFF73DFCFFF72C
:103C700031FC00BDE0E700B500F03AF839683E607D
:103C80000E4647F8046D4DF20016FFF78AFF00BD9F
:103C900000B500F02DF839683E600E4647F8046D17
:103CA0004DF20076FFF77DFF00BD00B5FFF7D8FFAE
:103CB00000F01EF839683E600E4647F8046D4DF27C
:103CC0000006FFF76EFF00BD00B500F011F839687F
:103CD0003E600E46FFF793FF00BD00B5FFF7C0FF43
:103CE000FFF7AAFF47F8046D0226FFF76BFC00BD43
:103CF00000B5FFF7A1FF47F8046D0226FFF762FC4D
:103D000000BD00B5FFF798FFFFF779FF00BD00B5D4
:103D1000FFF792FF47F8046D4DF20006FFF741FFF1
:103D200000BD00B5FFF788FF47F8046D4DF200169F
:103D3000FFF737FF00BD00B5FCF7A0FBFCF7D8FA92
:103D4000FCF7DBFAFCF7DEFA8168282901D1FCF7E1
:103D5000DBFBFCF7CFFB47F8046D42F600060902D7
:103D60000E43FFF7C1FBFCF78CFAFCF7B5FA00BD78
:103D70009C3D00003000047468656E00052E01D182
:103D800040CFBEE7F1B200296DD100B5FFF754FF77
:103D900039683E600E46FFF704FF00BDB83D0000E5
:103DA000300004656C73650000B500F036F8FCF770
:103DB00030FCFFF7E3FF00BD0E3E00003006026955
:103DC000660000B5FFF789FF47F8046D4DF2000665
:103DD00000BD00B5FCF7E5FBFDF7B7FC816A0029E3
:103DE00007D002B4FCF778FAFFF782FF47F8046DBA
:103DF00040BDFFF7A0FFFFF71FFF47F8046D022645
:103E0000FFF7E0FB47F8046D4DF2000600BD283EC9
:103E10000000300005616865616400B5FFF768FF68
:103E200047F8046D052600BD423E000030000672D2
:103E300065706561740000B500F05BF8FFF79EFFE8
:103E400000BD863E00003006057768696C6500B5E8
:103E5000FFF7B7FFFCF7DDFB00BD00B5FFF7B9FFCB
:103E6000FCF7D7FB00BDFEF7BBFD175374727563FB
:103E7000747572657320646F6E2774206D6174634E
:103E8000680A00F0C3BDE63E0000300605756E749A
:103E9000696C012EE7D140CF07E77047012EE2D1D0
:103EA00040CF00B5FDF751FC816A00290DD002B466
:103EB000FCF712FAFFF71CFF39683E600E4647F820
:103EC000046D40BCFFF76DFE00BDFFF734FFFFF748
:103ED0000FFF39683E600E4647F8046D4DF200064C
:103EE000FFF75FFE00BDFA3E00003000056167612C
:103EF000696E012EB7D140CFE6E6243F00003000C6
:103F000005626567696E00B5FFF7B4FE47F8046D9A
:103F1000012600BDD07F012001F8FFFF00F8FFFF60
:103F20001C0000203E3F00002002016B47F8046D9A
:103F3000029E704747F8046D49F602060BE06C3F9D
:103F400000002002016A47F8046D009E704747F8A0
:103F5000046D49F6000600B5FCF789F9FCF75AFA3A
:103F600003601B021E43FFF7BFFA00BD983F00002D
:103F70002002016947F8046D2600704700B547F834
:103F8000046D40F22006FCF772F9FCF743FA036077
:103F90001E43FFF7A9FA00BDD63F00003000056CB4
:103FA0006561766500B5754801683B00043F1A6895
:103FB000043B1A6008338B42F9D103B4FFF798FE33
:103FC00003BC330040CF04390B60016004390A6838
:103FD00001320A6000BDE83F0000200006756E6CEB
:103FE0006F6F700030BC7047204000003000052B20
:103FF0006C6F6F70032E00D035E740CF00B547F8E7
:10400000046D5F4EFFF749F8FFF742FE1AE014F126
:104010000044641BA41940CF2C44A4F10044704711
:10402000624000003000046C6F6F7000032E00D0FF
:1040300019E740CF00B547F8046D524EFFF72DF851
:10404000FFF719FE00F04AF94C48310040CF0160FB
:1040500047F8046D4C4EFFF720F800BD0134AC4228
:104060007047AA400000300202646F0000B547F8B4
:10407000046D464EFFF711F84048016847F8046D9B
:104080000E0047F8046D00260760FFF7F3FD47F8C0
:10409000046D032600BD00B500F02FF8ECE730B446
:1040A000340040CF350040CF7047904100003002CF
:1040B000033F646F00B547F8046D344EFEF7EDFF23
:1040C00047F8046D44F2AC26FFF70EFA2B4801685E
:1040D00047F8046D0E00FFF70BFE013647F8046D3C
:1040E000012626480760FFF7C5FD47F8046D032643
:1040F00000BD00B500F001F8E2E700B5FCF751FAA9
:10410000FCF7C6F9FCF7F4F8FCF7F7F8FCF7FAF857
:1041100047F8046D4BF23046FFF7E6F901682829AD
:1041200008D047F8046D40F20406C9000E43FFF7BB
:10413000DBF907E047F8046D466847F8046D04268C
:10414000FEF766FE8168282908D047F8046D40F222
:104150000506C9000E43FFF7C7F907E047F8046DED
:10416000C66847F8046D0526FEF752FEFCF789F88D
:10417000FCF787F8FCF7D0F800BD00000400002031
:104180000E4000005C400000E43F00009E40000044
:10419000B0410000300004636173650000B5FCF7B6
:1041A00000FA47F8046D002647F8046D082600BDA4
:1041B000C64100003000033F6F666B4809E0013ED6
:1041C000B64140CF7047844200003002026F660063
:1041D0006648082E00D046E640CF00B547F8046D8B
:1041E0000600FEF75AFFFFF783FD39683E600E4672
:1041F000013647F8046D0926FFF76CF900BD082E5B
:1042000000D030E640CF00B5FCF742F9FCF770F87B
:10421000FCF773F8FCF776F847F8046D44F2802653
:10422000FCF772F90E430268282A1ED14268FF2A61
:1042300008D840CF47F8046D42F60006164309023D
:104240000E4314E047F8046D4668FEF72DFD04CFD9
:10425000002E40CF06D0464E164356EA0146FFF7E1
:1042600073F906E0FCF746F90A00D2001643FFF79F
:104270003BF9FCF706F8FCF74FF8B4E7300040CF05
:10428000B0427047BA420000300005656E646F6648
:10429000092E00D0E7E540CF00B540B440CFFFF78E
:1042A00027FD39683E600E46FFF73BFD47F8046D79
:1042B00040BC47F8046D082600BD044300003000F0
:1042C00007656E6463617365082E00D0CBE540CF4F
:1042D00000B5FFF7FFF800F001F800BD00B53000B1
:1042E00040CF00280DD003B401213140002903D074
:1042F000013EFFF70CFD01E0FFF703FD03BC0138B1
:10430000EFE700BD18430000000005746F6B656E99
:1043100047F8046D202605E07C430000000005708E
:104320006172736510B5134801684068124A1268DB
:104330008418202E07D191420FD0835CB34202D162
:1043400001328418F7E7914207D0835C0132B3420F
:10435000F9D18618361B013E01E08618361B043F52
:104360003C600548026010BDBE4100007C42000078
:10437000000FB0F1DC7F0120E47F0120BA43000090
:104380000000056469676974CF4B1B68303E0BD32E
:104390000A2E0BD3073E0A2E06D3242E06D3203E28
:1043A0000A2E01D3242E01D3002670479E42FBD251
:1043B00047F8046D0026F6437047C444000000002F
:1043C000066E756D626572003FB5310040CF701E9C
:1043D0000126012204B4BC4B1B68002400250029DF
:1043E0003CD00130013902782D2A04D101B00022DD
:1043F000D24304B4F3E7232A01D10A23EFE7242AA6
:1044000001D11023EBE7252A01D10223E7E72E2A69
:1044100001D10226E3E72C2A36D047F8046D1600B6
:10442000FFF7B4FF002E40CF2BD047F8046D2600D5
:1044300047F8046D2E0047F8046D1E0047F8046D20
:1044400000260FB4FCF7B5FA0FBC350040CF34009E
:1044500040CF0022A419554140CFC0E704BC002A38
:1044600004D50022E443ED430134554133002600D6
:10447000012B02D047F8046D2E0047F8046D1E0092
:104480003FBD01B000263FBD2500002402260029C3
:10449000E4D0425C01392E2AF9D047F8046D1600A9
:1044A000FFF774FF002E40CFEBD0043F3C6047F88D
:1044B000046D1E000FB4FCF72BFB0FBC340040CF83
:1044C00040CFE4E7E64400000000062E6469676917
:1044D00074000A2E01D230367047242E01D23736AE
:1044E0007047232670471C450000000004686F6C6D
:1044F0006400330040CF7548017843290DD2013163
:1045000001704018012907D001380278013002708B
:10451000013801390129F7D1037070473C4500008B
:10452000000005686F6C643C330040CF6748017839
:10453000432902D2013101704354704754450000B1
:104540000000047369676E00002E01D440CF7047ED
:104550002D26CEE768450000000002233E005B48A0
:10456000067801303860704780450000000003661F
:10457000235310B5202400F008F8013CFBD110BDF6
:10458000A245000000000266230000B547F8046D54
:104590004D4E3668FCF7CFF9FFF79BFFFFF7C4FFDE
:1045A00000BDBE45000000000223530000B500F02E
:1045B0000AF8002EFBD138680028F8D100BDEA4582
:1045C00000000000012300B547F8046D3E4E366838
:1045D00047F8046D0026FCF7BAFAFCF71AF840CF4A
:1045E000FFF777FFFFF785FF00BDFC4500000000E7
:1045F000023C230035480021017070470E46000040
:10460000000002662E0047F8046D202604E05C4698
:104610000000000003662E6E00B510B4340040CFD9
:10462000FCF7B2FCFCF70CF947F8046D0026FFF725
:10463000E1FFFFF7BBFF40CF2C26FFF775FF002CF3
:1046400003D0FFF7A2FF013CFBD110BC40CFFFF726
:104650007BFF47F8046D47F8046D1CE072460000CC
:1046600000000375642E00B5FFF7C4FFFFF79EFF3F
:1046700011E0A4460000000002642E0000B5FCF723
:1046800083FCFCF7DDF8FFF7B5FFFFF78FFFFCF7C2
:104690008DFCFFF759FFFFF762FFFEF7F5F9FEF714
:1046A0004EF900BDB6460000000002752E0047F826
:1046B000046D0026D7E7944800000000012E47F85B
:1046C000046DF617DAE70000FC7F01207C00002073
:1046D00030B54FF000542568002D01D13D00256014
:1046E00030BD30B54FF000543D00256030BD30B5D1
:1046F0004FF000540025256030BD4FF000531B687B
:10470000DB1B9B08704700B5310040CF4FF4805051
:10471000084002D000F0A6F800BD4FF480600840C9
:1047200001D1FCF7CBFF320040CFFFF7D1FF4FF4B0
:104730000050084003D047F8046D160000BDFFF795
:10474000DCFF8020084006D14020084009D00F201F
:104750000840834205D347F8046D1600FEF751FD6B
:1047600000BD4FF40070084014D0FBF722FD47F85D
:10477000046D160047F8046D0E0000F031F81000CB
:10478000FEF7A2FC421CB3489047FFF7AAFFFBF7D5
:104790001FFD00BDFBF70DFD47F8046D160047F83F
:1047A000046D0E0000F01CF8FBF796FDFFF79FFF6D
:1047B0004FF40060084001D1FBF7F3FE47F8046DA9
:1047C000160010220A4002D0FEF71BFD00BD202279
:1047D0000A4002D0FEF761FC00BDFEF776FB00BD8B
:1047E0000FB5320040CF330040CF9B480168062907
:1047F00007D2062041439948401803801B0C438090
:10480000828095480168013101600FBD0FB5924863
:10481000016806291FD8914801391DD047F8046D59
:104820000E00FEF761FE47F8046D0688FEF75CFE99
:1048300047F8046D4688FEF757FE47F8046D8688F2
:10484000FEF752FE06300139EDD147F8046D41F212
:104850000006FEF7EBFD0FBD47F8046D4026FEF79E
:10486000E5FD0FBD00B5300040CFFEF72DFC0188FF
:10487000023047F8046D068842881204164347F850
:10488000046D868803B4FFF73EFF03BC0630013990
:10489000EFD100BDDC4800000000086576616C7552
:1048A0006174650000B5FDF7E8FF01CF01B440B4C5
:1048B00040CF6B48016802B400210160FDF7D0FFD2
:1048C00000F014F8664802BC016047F8046D40BC73
:1048D00001BC043F3860FDF7C3FF00BDE4490000A0
:1048E000000009696E7465727072657400B55D4888
:1048F00087420BD9FEF774F810537461636B20750F
:104900006E646572666C6F770A007FE05648874276
:104910000AD2FEF765F80F537461636B206F7665FA
:1049200072666C6F770A71E0FFF7D2FEFFF7F0FC5A
:10493000002E02D1043740CF00BD386847F8046D1F
:10494000043F3860FFF7C1F8310040CF320040CF5C
:10495000002A1BD138683100FCF7B0FEFFF734FDA8
:10496000320040CF002AC2D147F8046D060047F854
:10497000046D0E00FEF788F8FEF732F80C206E6F1B
:104980007420666F756E642E0A003FE0374B1B681B
:10499000002B1CD1FFF7ABFE30230B40302B0ED188
:1049A000FEF772F8FEF71CF81220697320636F6D32
:1049B00070696C652D6F6E6C792E0A0026E00437E5
:1049C00040CF47F8046D1600FEF71BFC8FE7043755
:1049D00040CF47F8046D160047F8046D0E00FFF74E
:1049E00092FE84E7004A0000810009686F6F6B2D1A
:1049F0007175697447F8046D1D4E70473E4A00009A
:104A0000844A00000000047175697400DFF864D006
:104A1000144FFDF7D0FA18480A210160134800210D
:104A200001604FF000500160FBF79DFC0C480160F5
:104A300012480160124941600D4800688746FDF741
:104A40002AFFFFF753FFFDF7CBFF05206F6B2E0A00
:104A5000F5E700002000002054000020580000204E
:104A6000E47F01208803002088010020D87F0120F6
:104A7000C87F012088040020FC7F0120DC7F01200A
:104A8000C00000209E4A000000000565696E743F6A
:104A900047F8046DEFF31086013EB6417047AE4A09
:104AA000000020000465696E740062B67047BE4A5B
:104AB000000020000464696E740072B67047D44A26
:104AC0000000200004697073720047F8046DEFF372
:104AD00005867047E04A00000000036E6F70704763
:104AE000224B0000000009756E68616E646C65649D
:104AF00000B5FDF775FF14556E68616E646C6564F2
:104B000020496E74657272757074200047F8046DE8
:104B1000EFF30586FDF7CCFFFDF762FF02210A00E7
:104B200000BD344B000000000572657365747B485E
:104B30007B4901605E4B000081000B6972712D732F
:104B400079737469636B47F8046D764E7047F04A69
:104B5000000047F6C470C2F2010000688746864B29
:104B600000008100096972712D6661756C7447F8E7
:104B7000046D6D4E7047F04A000047F6C070C2F2F7
:104B8000010000688746B44B000081000E69727115
:104B90002D636F6C6C656374696F6E0047F8046D0C
:104BA000624E7047F04A000047F6BC70C2F2010046
:104BB00000688746DC4B00008100096972712D6531
:104BC0007874693047F8046D594E7047F04A000018
:104BD00047F6B870C2F2010000688746044C000036
:104BE0008100096972712D657874693147F8046D27
:104BF000504E7047F04A000047F6B470C2F2010010
:104C0000006887462C4C00008100096972712D658F
:104C10007874693247F8046D474E7047F04A0000D7
:104C200047F6B070C2F2010000688746544C00009D
:104C30008100096972712D657874693347F8046DD4
:104C40003E4E7047F04A000047F6AC70C2F20100D9
:104C5000006887467C4C00008100096972712D65EF
:104C60007874693447F8046D354E7047F04A000097
:104C700047F6A870C2F2010000688746A24C000007
:104C80008100076972712D61646347F8046D2D4ED0
:104C90007047F04A000047F6A470C2F201000068B5
:104CA0008746CA4C00008100086972712D74696DD5
:104CB000320047F8046D244E7047F04A000047F672
:104CC000A070C2F2010000688746F24C000081002B
:104CD000086972712D74696D330047F8046D1B4EBD
:104CE0007047F04A000047F69C70C2F2010000686D
:104CF0008746105D02008100086972712D74696D2C
:104D0000340047F8046D124E7047F04A000047F631
:104D10009870C2F201000068874600000CED00E0C8
:104D20000400FA05C47F0120C07F0120BC7F012060
:104D3000B87F0120B47F0120B07F0120AC7F01202B
:104D4000A87F0120A47F0120A07F01209C7F01205B
:104D5000987F0120FF0000FF7EAA997E5100010587
:104D600092002062036772011082000011000101AD
:104D70000000000000000000000000000000000033
:104D800000000000000000800000000000000000A3
:104D900000000000080000000000002000000000EB
:104DA0000000000000000000000000000000000003
:104DB00000000000020000000000000800000000E9
:104DC00000000000000000000000000000000001E2
:104DD00000000000000004000000000000000000CF
:104DE00000000000000000000000000000000000C3
:104DF00000000000000000000000000000000000B3
:104E000000000000000000000000000000000000A2
:104E10000000000000000000000000000000000092
:104E20000000000000000000000000000000000082
:104E30000000000000000000000000000000000072
:104E40000000000000000000000000000000000062
:104E50000000000000000000000000000000000052
:104E600000400000000000000000000000000400FE
:104E70000000000000100000000000000000000022
:104E80000000000000000000000000000000010021
:104E90001C000000000400F80000000000000000FA
:104EA00000000000000000000001002400000000DD
:104EB00004000000000000000000000000000000EE
:104EC00000000000000000000000000000000000E2
:104ED00000000000000000000000000000000000D2
:104EE0000000000000008000000000000000000042
:104EF0000000000000000000000000000020000092
:104F000000000000F00000000000000000000000B1
:104F10000000000000000000200000000000000071
:104F20000000000000000000000000000000000081
:104F300000000000000000000000008000000200EF
:104F40000000000000000000080000001000002029
:104F50000000000000000000000000000000000051
:104F60000000000000000000020000000C0000082B
:104F70000000003000000000000000000000000001
:104F8000000000020000002F00000800D1006400B3
:104F90000000000000000000000000000000000011
:104FA0000000000000000000000000010000000000
:104FB00000000000000000000030000000000000C1
:104FC00040000000000000000000000000000000A1
:104FD00000000000000000000004000000000000CD
:104FE00010000000000000000000000000000000B1
:104FF0000000000036000000009800F800000000EB
:1050000000000000000000000000000000000000A0
:10501000000000000000038000000000000000000D
:105020000000000000000000000000000000000080
:105030000000000000000000000000000000000070
:105040000000000000000000000000000000000060
:105050000000000000000000000000000000000050
:105060000000000000000010000000000000000030
:105070000000000000000000000000000000000030
:105080000000000F80000000000000000000000091
:105090000000000000000000000000000000078089
:1050A0000000000000000000000000000000000000
:1050B00000000000000000000000000000000000F0
:1050C00000000000000000000000000000000000E0
:1050D00000000000000000000000000000000000D0
:1050E00000000000000000000000000000000000C0
:1050F0000002000000000000000000000000580056
:10510000000000000000000000000000020000009D
:10511000000000000000000000000000000000008F
:10512000000000000000200000000000000000005F
:10513000000000000000000000000400000000006B
:10514000003000000000000000000000000000002F
:10515000000000000000000000000000000000004F
:10516000000000000000000000000000000000003F
:10517000000000000000000000000000000000002F
:10518000000000000000000000000000000000001F
:10519000000000000000000000000000000000000F
:1051A00000000000000034000000000000000000CB
:1051B00000000000000000000000000000000000EF
:1051C00000000000000000000000000001000000DE
:1051D00000000000000000000000000000000000CF
:1051E00000000000000000010000000000000000BE
:1051F00000000000000000000000000000000000AF
:10520000001000000000000000000000000000008E
:10521000000000020000000000000000500000003C
:10522000000000000000000000000000000000007E
:1052300000000000000080000002000000000000EC
:10524000000000000000000000000000000000005E
:1052500000800000020000000000000000000000CC
:105260000000000000000000000008000000300006
:10527000000000000000000000000000000000002E
:105280000E00000000040000000C00000000000000
:10529000000000000000000000000000000000000E
:1052A00000000000000000000000000000000000FE
:1052B00000000000000000000000000000000000EE
:1052C00000000000000000000000000000000000DE
:1052D00000000000000000000000000000000000CE
:1052E00000000000000000000000000000000000BE
:1052F000000000007000000000000000000000003E
:10530000000000000000000000000000000000009D
:10531000400000000000000000000000000000004D
:10532000000000000000000000000040000000003D
:10533000000000000000000000000000000000006D
:105340000000000004000000000000000000000059
:105350000000000000000000000000000000000449
:1053600000700000000000000000000000000000CD
:10537000000000000000000000000000000000012C
:10538000000000000000000000000000001000000D
:1053900000000020400000000000000000000000AD
:1053A00000000000000000000000000000040000F9
:1053B00000000000100000000000000000000000DD
:1053C000000000000000000004060000000098102B
:1053D00000000000000000000000000000000000CD
:1053E000000000000000000000008000000000003D
:1053F00000000000000000000000000000000000AD
:10540000C00000000080000000000000000000005C
:105410000000000000000000000000000000080084
:10542000000000000000000000000000000000007C
:105430000000000000000000000800F9000000006B
:105440000000000000000000000001402FBA14001E
:105450000000013EA85000002064018140000001CE
:1054600087EA85000001E67FEA14000000000000E2
:10547000000000000000000008191FA850000000F4
:1054800000000000000000000000000000001E05F9
:10549000A0000100000000000000000160004000CA
:1054A00000980B0598800000000000040000000038
:1054B0000000B000000000002026CD100000000811
:1054C0009B74400040043ACB4200000070072388E0
:1054D00000000362A5AD12000000000000000010F3
:1054E0004403C000000108D7744010000000000011
:1054F00000000000000000000010000205A00000F5
:1055000000000000000000000020040080001005E2
:10551000396800000003FC0080000000280000E95A
:105520002F9500A0006040000002800018F3795021
:105530000A0020284AA14028001989768500A00089
:10554000604D9A14000000000000000A40000200B4
:1055500002800F0ED6F9500000000000000000028B
:10556000000000000000000000000000000000003B
:1055700000000A0000000000002800000FB000003A
:10558000A0000000000000000000000009AB0000C7
:10559000000003C000000000000057F000000014ED
:1055A000426BE200000000092B8800000003D7EDE9
:1055B000100000000000000000200003C0000001F7
:1055C000009E300200000000000000000400000007
:1055D000000000000000000000000040000000008B
:1055E000000000000000000004038014040000001C
:1055F00000000000000030007800000000C0020041
:1056000036DE54030001815BA8500C00160158A13E
:1056100040300898A3EB9500C003C01F9A14000007
:1056200000000000000C000078000300001EBE28EF
:10563000500000000000000000000000000000001A
:105640000000000000000000000000000C000C043E
:105650000000003000001871000040000000E1046C
:10566000000000000008000000000000400D9C0049
:1056700000000008B3F4400000003A78E2000000A7
:105680001101AF00000001601C9E2000000000001E
:10569000000004000003400000000072F444000019
:1056A00000000000000000000000000000000000FA
:1056B00000000000000000000004000224000000C0
:1056C000100000877A000040000000000000000089
:1056D000000080000000000002000E081400000D11
:1056E00000B72850000E14745CA140000059897E58
:1056F000850000000617DE540000000000000000D6
:10570000001E3A0000000058F2E8500000000000BF
:105710000000000000000000000000000003C000C6
:105720000000000000000000400000000000001821
:105730000000000000004000000000000000001019
:105740000000000000004000F81000000B805AF438
:1057500040000002636CD1000000F0053F880000AB
:10576000000007EC00000000000000000000020143
:10577000C0000000001FF8840000000000000000CE
:1057800000000000000000000000E3C00000000076
:105790000000000000802400000000000000000065
:1057A00000000020000000000000000000006281F6
:1057B0000000000634FE5400000018DB39500000E1
:1057C000060569A140000000056B9500000200403D
:1057D00000000000000000000000003E03C00400C4
:1057E00001809F3950000000000000000000000010
:1057F00000000000000000000000000000000000A9
:10580000000000000000000000700078410000A0CF
:105810000000000000000000000007414000000000
:10582000000D9C0000000008777000000000227B43
:10583000D100000000012B00000000420000000029
:1058400000000000000000000C234000000009F6EA
:10585000F000000040000000000000000000000018
:105860000000000000000000000000000000000038
:105870003C00000000009880400000000000000094
:1058800000000000000000000000000000062F8A59
:10589000140000080A0000000000206258A1400027
:1058A0000081A16E850000000044DA1400000000B1
:1058B00000000000000422000000079892A8500099
:1058C00000000000000000000000000000000000D8
:1058D00000000000000000000000000000015C5E0D
:1058E000000000588B789000000003B6F1A0000083
:1058F00000000000000000000000403D8D1000008E
:10590000011000000000000403EBE2000000100999
:105910006B880000000205ED100000000000000090
:1059200000000042CF000000001FF88010000000BF
:105930000000000004000000000000000000000063
:105940000000000000000000000021DB2E004005E8
:10595000009371F0000000003DD7F000000000004F
:10596000180000000000000067DE5400000D985E83
:105970002850000400015DA140000258016F95000D
:105980000000663E8A1400000000000000000000D5
:1059900020000000001C1A28500000000000000039
:1059A00000000000000000000000000000000000F7
:1059B000000000000000A0000000000000180FA878
:1059C00004000000070000000000000000000000CC
:1059D00000000000020D9C0000000100B6B4400071
:1059E0000400027CE20000000001AB0000000000A7
:1059F00025CD1000000000000000000064244C00D1
:105A000001C00FD63440000000000000000000007C
:105A10000000000000104000000000000000000036
:105A200000000044000000000000000B60140000B3
:105A300021C0000000000000000000000000000085
:105A4000000047DE5400000581DB685000000004C0
:105A50005BA140400298192E85000A000064EA14F8
:105A60000000000000000004000000010000018BA5
:105A700056795000400000000000000000000000C7
:105A80000000000000000000000000000000000016
:105A9000000000000000007095F4B8000000000055
:105AA00000000000000000000000000000000216DE
:105AB000FC0000000008F6B8800000002B6BD1004D
:105AC000000410852388000400421F8D1000000090
:105AD000000000000C002424CC000000083A300034
